{
  "contractName": "SharedWallet",
  "abi": [
    {
      "inputs": [],
      "stateMutability": "nonpayable",
      "type": "constructor"
    },
    {
      "anonymous": false,
      "inputs": [
        {
          "indexed": false,
          "internalType": "address",
          "name": "from",
          "type": "address"
        },
        {
          "indexed": false,
          "internalType": "uint256",
          "name": "amount",
          "type": "uint256"
        }
      ],
      "name": "DepositFounds",
      "type": "event"
    },
    {
      "anonymous": false,
      "inputs": [
        {
          "indexed": false,
          "internalType": "address",
          "name": "from",
          "type": "address"
        },
        {
          "indexed": false,
          "internalType": "address",
          "name": "to",
          "type": "address"
        },
        {
          "indexed": false,
          "internalType": "uint256",
          "name": "amount",
          "type": "uint256"
        }
      ],
      "name": "TransferFounds",
      "type": "event"
    },
    {
      "anonymous": false,
      "inputs": [
        {
          "indexed": false,
          "internalType": "address",
          "name": "from",
          "type": "address"
        },
        {
          "indexed": false,
          "internalType": "uint256",
          "name": "amount",
          "type": "uint256"
        }
      ],
      "name": "WithdrawFounds",
      "type": "event"
    },
    {
      "inputs": [
        {
          "internalType": "address",
          "name": "Owner",
          "type": "address"
        }
      ],
      "name": "addOwner",
      "outputs": [],
      "stateMutability": "nonpayable",
      "type": "function"
    },
    {
      "inputs": [
        {
          "internalType": "address",
          "name": "Owner",
          "type": "address"
        }
      ],
      "name": "removeOwner",
      "outputs": [],
      "stateMutability": "nonpayable",
      "type": "function"
    },
    {
      "inputs": [
        {
          "internalType": "uint256",
          "name": "amount",
          "type": "uint256"
        }
      ],
      "name": "withdraw",
      "outputs": [],
      "stateMutability": "nonpayable",
      "type": "function"
    },
    {
      "inputs": [
        {
          "internalType": "address",
          "name": "to",
          "type": "address"
        },
        {
          "internalType": "uint256",
          "name": "amount",
          "type": "uint256"
        }
      ],
      "name": "transferFrom",
      "outputs": [],
      "stateMutability": "nonpayable",
      "type": "function"
    }
  ],
  "bytecode": "0x608060405234801561001057600080fd5b50336000806101000a81548173ffffffffffffffffffffffffffffffffffffffff021916908373ffffffffffffffffffffffffffffffffffffffff1602179055506107bd806100606000396000f3fe608060405234801561001057600080fd5b506004361061004c5760003560e01c806301c6adc314610051578063173825d91461006d5780632e1a7d4d146100895780637065cb48146100a5575b600080fd5b61006b60048036038101906100669190610578565b6100c1565b005b6100876004803603810190610082919061054f565b610241565b005b6100a3600480360381019061009e91906105b4565b6102f5565b005b6100bf60048036038101906100ba919061054f565b610472565b005b60008054906101000a900473ffffffffffffffffffffffffffffffffffffffff1673ffffffffffffffffffffffffffffffffffffffff163373ffffffffffffffffffffffffffffffffffffffff161480610169575060018060003373ffffffffffffffffffffffffffffffffffffffff1673ffffffffffffffffffffffffffffffffffffffff16815260200190815260200160002060009054906101000a900460ff1660ff16145b61017257600080fd5b6000829050814710156101ba576040517f08c379a00000000000000000000000000000000000000000000000000000000081526004016101b19061068d565b60405180910390fd5b8073ffffffffffffffffffffffffffffffffffffffff166108fc839081150290604051600060405180830381858888f19350505050158015610200573d6000803e3d6000fd5b507fe6cf941d8c3066598e8a7227dcd27d37ef0663b124a63b00f58984c425d0a9e38184846040516102349392919061062d565b60405180910390a1505050565b60008054906101000a900473ffffffffffffffffffffffffffffffffffffffff1673ffffffffffffffffffffffffffffffffffffffff163373ffffffffffffffffffffffffffffffffffffffff161461029957600080fd5b6000600160008373ffffffffffffffffffffffffffffffffffffffff1673ffffffffffffffffffffffffffffffffffffffff16815260200190815260200160002060006101000a81548160ff021916908360ff16021790555050565b60008054906101000a900473ffffffffffffffffffffffffffffffffffffffff1673ffffffffffffffffffffffffffffffffffffffff163373ffffffffffffffffffffffffffffffffffffffff16148061039d575060018060003373ffffffffffffffffffffffffffffffffffffffff1673ffffffffffffffffffffffffffffffffffffffff16815260200190815260200160002060009054906101000a900460ff1660ff16145b6103a657600080fd5b6000339050814710156103ee576040517f08c379a00000000000000000000000000000000000000000000000000000000081526004016103e59061068d565b60405180910390fd5b8073ffffffffffffffffffffffffffffffffffffffff166108fc839081150290604051600060405180830381858888f19350505050158015610434573d6000803e3d6000fd5b507ff1958512e7be9819df683615e5164fda21c412c8a92b52903eb65ac85da79a9f8183604051610466929190610664565b60405180910390a15050565b60008054906101000a900473ffffffffffffffffffffffffffffffffffffffff1673ffffffffffffffffffffffffffffffffffffffff163373ffffffffffffffffffffffffffffffffffffffff16146104ca57600080fd5b60018060008373ffffffffffffffffffffffffffffffffffffffff1673ffffffffffffffffffffffffffffffffffffffff16815260200190815260200160002060006101000a81548160ff021916908360ff16021790555050565b60008135905061053481610759565b92915050565b60008135905061054981610770565b92915050565b60006020828403121561056157600080fd5b600061056f84828501610525565b91505092915050565b6000806040838503121561058b57600080fd5b600061059985828601610525565b92505060206105aa8582860161053a565b9150509250929050565b6000602082840312156105c657600080fd5b60006105d48482850161053a565b91505092915050565b6105e6816106fa565b82525050565b6105f5816106be565b82525050565b6000610608600e836106ad565b915061061382610730565b602082019050919050565b610627816106f0565b82525050565b600060608201905061064260008301866105dd565b61064f60208301856105ec565b61065c604083018461061e565b949350505050565b600060408201905061067960008301856105dd565b610686602083018461061e565b9392505050565b600060208201905081810360008301526106a6816105fb565b9050919050565b600082825260208201905092915050565b60006106c9826106d0565b9050919050565b600073ffffffffffffffffffffffffffffffffffffffff82169050919050565b6000819050919050565b60006107058261070c565b9050919050565b60006107178261071e565b9050919050565b6000610729826106d0565b9050919050565b7f6e6f7420656e6f75676820455448000000000000000000000000000000000000600082015250565b610762816106be565b811461076d57600080fd5b50565b610779816106f0565b811461078457600080fd5b5056fea2646970667358221220ef3a3a9ffead6a704da94428e311a078cedb97983500cc5e0af739603a24a4d264736f6c63430008020033",
  "immutableReferences": {},
  "source": "// SPDX-License-Identifier: MIT\npragma solidity >= 0.7.0 < 0.9.0;\n\ncontract SharedWallet{\n    address private _Owner;\n    mapping(address => uint8) private _Owners;\n    \n    //modifier\n    modifier isOwner{\n        require(msg.sender == _Owner);\n        _;\n    }\n    modifier validOwner{\n        require(msg.sender  == _Owner || _Owners[msg.sender]  == 1);\n        _;\n    }\n\n    event DepositFounds(address from , uint amount);\n    event WithdrawFounds(address from, uint amount);\n    event TransferFounds(address from, address to, uint amount);\n    \n    constructor(){\n        _Owner = msg.sender;\n    }\n\n    function addOwner(address Owner) isOwner public{\n        _Owners[Owner] = 1;\n    }\n    function removeOwner(address Owner) isOwner public{\n        _Owners[Owner] = 0;\n    }\n    //every one can send ETH to contract\n \n\n\n    function withdraw(uint amount) validOwner public{\n        address payable address_msg_sender = payable(msg.sender);\n        require(address(this).balance >= amount, \"not enough ETH\");\n        address_msg_sender.transfer(amount);\n        emit WithdrawFounds(address_msg_sender, amount);\n    }\n\n    function transferFrom(address to,uint amount) validOwner public{\n        address payable addressTo = payable(to);\n        require(address(this).balance >= amount, \"not enough ETH\");\n        addressTo.transfer(amount);\n        emit TransferFounds(addressTo, to , amount);\n    } \n}",
  "sourcePath": "/home/amir/Desktop/contracts/contracts/SharedWallet.sol",
  "compiler": {
    "name": "solc",
    "version": "0.8.2+commit.661d1103.Emscripten.clang"
  },
  "schemaVersion": "3.4.3",
  "updatedAt": "2022-04-29T09:04:18.587Z",
  "devdoc": {
    "kind": "dev",
    "methods": {},
    "version": 1
  },
  "userdoc": {
    "kind": "user",
    "methods": {},
    "version": 1
  }
}