{
  "contractName": "Timelock",
  "abi": [
    {
      "inputs": [
        {
          "internalType": "address",
          "name": "",
          "type": "address"
        }
      ],
      "name": "balance",
      "outputs": [
        {
          "internalType": "uint256",
          "name": "",
          "type": "uint256"
        }
      ],
      "stateMutability": "view",
      "type": "function",
      "constant": true
    },
    {
      "inputs": [
        {
          "internalType": "address",
          "name": "",
          "type": "address"
        }
      ],
      "name": "lockTime",
      "outputs": [
        {
          "internalType": "uint256",
          "name": "",
          "type": "uint256"
        }
      ],
      "stateMutability": "view",
      "type": "function",
      "constant": true
    },
    {
      "inputs": [],
      "name": "deposit",
      "outputs": [],
      "stateMutability": "payable",
      "type": "function",
      "payable": true
    },
    {
      "inputs": [],
      "name": "withdraw",
      "outputs": [],
      "stateMutability": "nonpayable",
      "type": "function"
    }
  ],
  "bytecode": "0x608060405234801561001057600080fd5b50610702806100206000396000f3fe60806040526004361061003f5760003560e01c80633ccfd60b14610044578063a4beda631461005b578063d0e30db014610098578063e3d670d7146100a2575b600080fd5b34801561005057600080fd5b506100596100df565b005b34801561006757600080fd5b50610082600480360381019061007d9190610406565b610318565b60405161008f919061053f565b60405180910390f35b6100a0610330565b005b3480156100ae57600080fd5b506100c960048036038101906100c49190610406565b6103d9565b6040516100d6919061053f565b60405180910390f35b60008060003373ffffffffffffffffffffffffffffffffffffffff1673ffffffffffffffffffffffffffffffffffffffff1681526020019081526020016000205411610160576040517f08c379a0000000000000000000000000000000000000000000000000000000008152600401610157906104ff565b60405180910390fd5b600160003373ffffffffffffffffffffffffffffffffffffffff1673ffffffffffffffffffffffffffffffffffffffff1681526020019081526020016000205442116101e1576040517f08c379a00000000000000000000000000000000000000000000000000000000081526004016101d89061051f565b60405180910390fd5b60008060003373ffffffffffffffffffffffffffffffffffffffff1673ffffffffffffffffffffffffffffffffffffffff16815260200190815260200160002054905060008060003373ffffffffffffffffffffffffffffffffffffffff1673ffffffffffffffffffffffffffffffffffffffff1681526020019081526020016000208190555060003373ffffffffffffffffffffffffffffffffffffffff168260405161028e906104ca565b60006040518083038185875af1925050503d80600081146102cb576040519150601f19603f3d011682016040523d82523d6000602084013e6102d0565b606091505b5050905080610314576040517f08c379a000000000000000000000000000000000000000000000000000000000815260040161030b906104df565b60405180910390fd5b5050565b60016020528060005260406000206000915090505481565b346000803373ffffffffffffffffffffffffffffffffffffffff1673ffffffffffffffffffffffffffffffffffffffff168152602001908152602001600020600082825461037e9190610576565b9250508190555062093a80426103949190610576565b600160003373ffffffffffffffffffffffffffffffffffffffff1673ffffffffffffffffffffffffffffffffffffffff16815260200190815260200160002081905550565b60006020528060005260406000206000915090505481565b600081359050610400816106b5565b92915050565b60006020828403121561041857600080fd5b6000610426848285016103f1565b91505092915050565b600061043c601583610565565b915061044782610637565b602082019050919050565b600061045f601283610565565b915061046a82610660565b602082019050919050565b6000610482601983610565565b915061048d82610689565b602082019050919050565b60006104a560008361055a565b91506104b0826106b2565b600082019050919050565b6104c4816105fe565b82525050565b60006104d582610498565b9150819050919050565b600060208201905081810360008301526104f88161042f565b9050919050565b6000602082019050818103600083015261051881610452565b9050919050565b6000602082019050818103600083015261053881610475565b9050919050565b600060208201905061055460008301846104bb565b92915050565b600081905092915050565b600082825260208201905092915050565b6000610581826105fe565b915061058c836105fe565b9250827fffffffffffffffffffffffffffffffffffffffffffffffffffffffffffffffff038211156105c1576105c0610608565b5b828201905092915050565b60006105d7826105de565b9050919050565b600073ffffffffffffffffffffffffffffffffffffffff82169050919050565b6000819050919050565b7f4e487b7100000000000000000000000000000000000000000000000000000000600052601160045260246000fd5b7f4661696c656420746f2073656e64206574686572730000000000000000000000600082015250565b7f496e73756666696369656e742066756e64730000000000000000000000000000600082015250565b7f4c6f636b2074696d6520686173206e6f74206578706972656400000000000000600082015250565b50565b6106be816105cc565b81146106c957600080fd5b5056fea2646970667358221220150c9c12f32bee930b1cdd3eaf996cac6a6e597b5d0db64536162331cabc0a2f64736f6c63430008020033",
  "immutableReferences": {},
  "source": "// SPDX-License-Identifier: MIT\npragma solidity >=0.7.0 < 0.9.0;\nimport \"../lib/SafeMath.sol\";\ncontract Timelock{\n    using SafeMath for uint;\n    mapping(address => uint256) public balance;\n    mapping(address => uint) public lockTime;\n\n    function deposit() public payable{\n        balance[msg.sender]+=msg.value;\n        lockTime[msg.sender] = block.timestamp + 1 weeks;\n    }\n\n\n    function withdraw() public {\n        require(balance[msg.sender] > 0, \"Insufficient funds\");\n        require(block.timestamp > lockTime[msg.sender], \"Lock time has not expired\");\n        uint amount = balance[msg.sender];\n        balance[msg.sender] = 0;\n        (bool sent,) = msg.sender.call{value:amount}(\"\");\n        require(sent, \"Failed to send ethers\");\n        }\n     \n\n}",
  "sourcePath": "/home/amir/Desktop/contracts/contracts/Timelock.sol",
  "compiler": {
    "name": "solc",
    "version": "0.8.2+commit.661d1103.Emscripten.clang"
  },
  "schemaVersion": "3.4.3",
  "updatedAt": "2022-04-29T07:18:10.011Z",
  "networkType": "ethereum",
  "devdoc": {
    "kind": "dev",
    "methods": {},
    "version": 1
  },
  "userdoc": {
    "kind": "user",
    "methods": {},
    "version": 1
  }
}