{
  "contractName": "TokenSwap",
  "abi": [
    {
      "inputs": [
        {
          "internalType": "address",
          "name": "_token1",
          "type": "address"
        },
        {
          "internalType": "address",
          "name": "_token2",
          "type": "address"
        }
      ],
      "stateMutability": "nonpayable",
      "type": "constructor"
    },
    {
      "anonymous": false,
      "inputs": [
        {
          "indexed": false,
          "internalType": "address",
          "name": "sender",
          "type": "address"
        },
        {
          "indexed": false,
          "internalType": "uint256",
          "name": "amount",
          "type": "uint256"
        }
      ],
      "name": "SwapToken",
      "type": "event"
    },
    {
      "inputs": [],
      "name": "rate",
      "outputs": [
        {
          "internalType": "uint8",
          "name": "",
          "type": "uint8"
        }
      ],
      "stateMutability": "view",
      "type": "function"
    },
    {
      "inputs": [],
      "name": "token1",
      "outputs": [
        {
          "internalType": "contract IERC20",
          "name": "",
          "type": "address"
        }
      ],
      "stateMutability": "view",
      "type": "function"
    },
    {
      "inputs": [],
      "name": "token2",
      "outputs": [
        {
          "internalType": "contract IERC20",
          "name": "",
          "type": "address"
        }
      ],
      "stateMutability": "view",
      "type": "function"
    },
    {
      "inputs": [
        {
          "internalType": "uint256",
          "name": "amount",
          "type": "uint256"
        }
      ],
      "name": "swap",
      "outputs": [],
      "stateMutability": "nonpayable",
      "type": "function"
    },
    {
      "inputs": [
        {
          "internalType": "uint8",
          "name": "_rate",
          "type": "uint8"
        }
      ],
      "name": "setRate",
      "outputs": [],
      "stateMutability": "nonpayable",
      "type": "function"
    },
    {
      "inputs": [],
      "name": "viewRate",
      "outputs": [
        {
          "internalType": "uint8",
          "name": "",
          "type": "uint8"
        }
      ],
      "stateMutability": "view",
      "type": "function"
    }
  ],
  "bytecode": "0x60806040526064600260146101000a81548160ff021916908360ff16021790555034801561002c57600080fd5b50604051610ffe380380610ffe833981810160405281019061004e919061012c565b33600260006101000a81548173ffffffffffffffffffffffffffffffffffffffff021916908373ffffffffffffffffffffffffffffffffffffffff160217905550816000806101000a81548173ffffffffffffffffffffffffffffffffffffffff021916908373ffffffffffffffffffffffffffffffffffffffff16021790555080600160006101000a81548173ffffffffffffffffffffffffffffffffffffffff021916908373ffffffffffffffffffffffffffffffffffffffff16021790555050506101b1565b6000815190506101268161019a565b92915050565b6000806040838503121561013f57600080fd5b600061014d85828601610117565b925050602061015e85828601610117565b9150509250929050565b60006101738261017a565b9050919050565b600073ffffffffffffffffffffffffffffffffffffffff82169050919050565b6101a381610168565b81146101ae57600080fd5b50565b610e3e806101c06000396000f3fe608060405234801561001057600080fd5b50600436106100625760003560e01c806325be124e146100675780632c4e722e146100855780634afe2f80146100a357806394b918de146100bf578063a247a09b146100db578063d21220a7146100f9575b600080fd5b61006f610117565b60405161007c9190610ae7565b60405180910390f35b61008d61013d565b60405161009a9190610ba2565b60405180910390f35b6100bd60048036038101906100b8919061092f565b610150565b005b6100d960048036038101906100d491906108dd565b6101fe565b005b6100e361074b565b6040516100f09190610ba2565b60405180910390f35b610101610762565b60405161010e9190610ae7565b60405180910390f35b600160009054906101000a900473ffffffffffffffffffffffffffffffffffffffff1681565b600260149054906101000a900460ff1681565b3373ffffffffffffffffffffffffffffffffffffffff16600260009054906101000a900473ffffffffffffffffffffffffffffffffffffffff1673ffffffffffffffffffffffffffffffffffffffff16146101e0576040517f08c379a00000000000000000000000000000000000000000000000000000000081526004016101d790610b02565b60405180910390fd5b80600260146101000a81548160ff021916908360ff16021790555050565b8060008054906101000a900473ffffffffffffffffffffffffffffffffffffffff1673ffffffffffffffffffffffffffffffffffffffff166370a08231336040518263ffffffff1660e01b81526004016102589190610a43565b60206040518083038186803b15801561027057600080fd5b505afa158015610284573d6000803e3d6000fd5b505050506040513d601f19601f820116820180604052508101906102a89190610906565b10156102e9576040517f08c379a00000000000000000000000000000000000000000000000000000000081526004016102e090610b22565b60405180910390fd5b8060008054906101000a900473ffffffffffffffffffffffffffffffffffffffff1673ffffffffffffffffffffffffffffffffffffffff1663dd62ed3e33306040518363ffffffff1660e01b8152600401610345929190610a5e565b60206040518083038186803b15801561035d57600080fd5b505afa158015610371573d6000803e3d6000fd5b505050506040513d601f19601f820116820180604052508101906103959190610906565b101561044a5760008054906101000a900473ffffffffffffffffffffffffffffffffffffffff1673ffffffffffffffffffffffffffffffffffffffff1663095ea7b330836040518363ffffffff1660e01b81526004016103f6929190610abe565b602060405180830381600087803b15801561041057600080fd5b505af1158015610424573d6000803e3d6000fd5b505050506040513d601f19601f8201168201806040525081019061044891906108b4565b505b8060008054906101000a900473ffffffffffffffffffffffffffffffffffffffff1673ffffffffffffffffffffffffffffffffffffffff1663dd62ed3e33306040518363ffffffff1660e01b81526004016104a6929190610a5e565b60206040518083038186803b1580156104be57600080fd5b505afa1580156104d2573d6000803e3d6000fd5b505050506040513d601f19601f820116820180604052508101906104f69190610906565b1015610537576040517f08c379a000000000000000000000000000000000000000000000000000000000815260040161052e90610b82565b60405180910390fd5b600081600260149054906101000a900460ff1660ff166105579190610bce565b905080600160009054906101000a900473ffffffffffffffffffffffffffffffffffffffff1673ffffffffffffffffffffffffffffffffffffffff1663dd62ed3e600260009054906101000a900473ffffffffffffffffffffffffffffffffffffffff16306040518363ffffffff1660e01b81526004016105d9929190610a5e565b60206040518083038186803b1580156105f157600080fd5b505afa158015610605573d6000803e3d6000fd5b505050506040513d601f19601f820116820180604052508101906106299190610906565b101561066a576040517f08c379a000000000000000000000000000000000000000000000000000000000815260040161066190610b42565b60405180910390fd5b60003390506106bd60008054906101000a900473ffffffffffffffffffffffffffffffffffffffff1682600260009054906101000a900473ffffffffffffffffffffffffffffffffffffffff1686610786565b61070d600160009054906101000a900473ffffffffffffffffffffffffffffffffffffffff16600260009054906101000a900473ffffffffffffffffffffffffffffffffffffffff168385610786565b7fc94dbda73924bbf0036527857660851c5219d5e5cc6e2091c9463fb45090a5e9338460405161073e929190610abe565b60405180910390a1505050565b6000600260149054906101000a900460ff16905090565b60008054906101000a900473ffffffffffffffffffffffffffffffffffffffff1681565b60008473ffffffffffffffffffffffffffffffffffffffff166323b872dd8585856040518463ffffffff1660e01b81526004016107c593929190610a87565b602060405180830381600087803b1580156107df57600080fd5b505af11580156107f3573d6000803e3d6000fd5b505050506040513d601f19601f8201168201806040525081019061081791906108b4565b905080610859576040517f08c379a000000000000000000000000000000000000000000000000000000000815260040161085090610b62565b60405180910390fd5b5050505050565b60008151905061086f81610dc3565b92915050565b60008135905061088481610dda565b92915050565b60008151905061089981610dda565b92915050565b6000813590506108ae81610df1565b92915050565b6000602082840312156108c657600080fd5b60006108d484828501610860565b91505092915050565b6000602082840312156108ef57600080fd5b60006108fd84828501610875565b91505092915050565b60006020828403121561091857600080fd5b60006109268482850161088a565b91505092915050565b60006020828403121561094157600080fd5b600061094f8482850161089f565b91505092915050565b61096181610c28565b82525050565b61097081610c7d565b82525050565b6000610983602983610bbd565b915061098e82610cd0565b604082019050919050565b60006109a6601083610bbd565b91506109b182610d1f565b602082019050919050565b60006109c9601983610bbd565b91506109d482610d48565b602082019050919050565b60006109ec601583610bbd565b91506109f782610d71565b602082019050919050565b6000610a0f601983610bbd565b9150610a1a82610d9a565b602082019050919050565b610a2e81610c66565b82525050565b610a3d81610c70565b82525050565b6000602082019050610a586000830184610958565b92915050565b6000604082019050610a736000830185610958565b610a806020830184610958565b9392505050565b6000606082019050610a9c6000830186610958565b610aa96020830185610958565b610ab66040830184610a25565b949350505050565b6000604082019050610ad36000830185610958565b610ae06020830184610a25565b9392505050565b6000602082019050610afc6000830184610967565b92915050565b60006020820190508181036000830152610b1b81610976565b9050919050565b60006020820190508181036000830152610b3b81610999565b9050919050565b60006020820190508181036000830152610b5b816109bc565b9050919050565b60006020820190508181036000830152610b7b816109df565b9050919050565b60006020820190508181036000830152610b9b81610a02565b9050919050565b6000602082019050610bb76000830184610a34565b92915050565b600082825260208201905092915050565b6000610bd982610c66565b9150610be483610c66565b9250817fffffffffffffffffffffffffffffffffffffffffffffffffffffffffffffffff0483118215151615610c1d57610c1c610ca1565b5b828202905092915050565b6000610c3382610c46565b9050919050565b60008115159050919050565b600073ffffffffffffffffffffffffffffffffffffffff82169050919050565b6000819050919050565b600060ff82169050919050565b6000610c8882610c8f565b9050919050565b6000610c9a82610c46565b9050919050565b7f4e487b7100000000000000000000000000000000000000000000000000000000600052601160045260246000fd5b7f4a757374204f776e6572206f6620636f6e74726163742063616c6c207468697360008201527f2066756e6374696f6e0000000000000000000000000000000000000000000000602082015250565b7f6e6f7420656e6f75676820746f6b656e00000000000000000000000000000000600082015250565b7f546f6b656e203220616c6c6f77616e636520746f6f206c6f7700000000000000600082015250565b7f546f6b656e207472616e73666572206661696c65640000000000000000000000600082015250565b7f546f6b656e203120616c6c6f77616e636520746f6f206c6f7700000000000000600082015250565b610dcc81610c3a565b8114610dd757600080fd5b50565b610de381610c66565b8114610dee57600080fd5b50565b610dfa81610c70565b8114610e0557600080fd5b5056fea26469706673582212209f23dd1b7d05f0eb4542ecb50e2831652b741c2f8b8f8a7d20dd10ea5a68383864736f6c63430008020033",
  "immutableReferences": {},
  "source": "// SPDX-License-Identifier: MIT\npragma solidity >=0.7.0 <0.9.0;\nimport \"../lib/SafeMath.sol\";\ninterface IERC20{\n    function totalSupply() external view returns(uint256);\n    function balanceOf(address account) external view returns(uint256);\n    function transfer(address recipient, uint256 amount) external returns(bool);\n    function allowance(address owner, address spender) external view returns(uint256);\n    function approve(address spender, uint256 amount) external returns(bool);\n    function transferFrom(address spender, address recipient, uint256 amount) external returns(bool);\n    event Transfer(address from, address to, uint256 value);\n    event Approval(address owner, address spender, uint256 value);\n}\n\n\ncontract TokenSwap{\n    using SafeMath for uint;\n    //state variables\n    IERC20 public token1;\n    IERC20 public token2;\n    address private owner;\n    uint8 public rate = 100;\n\n    modifier onlyOwner{\n        require(owner == msg.sender, \"Just Owner of contract call this function\");\n        _;\n    }\n    event SwapToken(address sender, uint amount);\n\n    //when deploying pass in owner1 and owner 2\n\n    constructor(address _token1, address _token2){\n        owner = msg.sender;\n        //BUSD token\n        token1 =IERC20(_token1);\n        //token for owner\n        token2=IERC20(_token2);\n      \n        \n    }\n\n    //*** Important ***\n    //this contract needs an allowance to send tokens at token 1 and token 2 that is owned \n    \n    function swap(uint amount) public{\n        //stable token\n        require(token1.balanceOf(msg.sender) >= amount, \"not enough token\");\n        if(token1.allowance(msg.sender, address(this)) < amount){\n            token1.approve(address(this), amount);\n        }\n        require(token1.allowance(msg.sender, address(this)) >= amount, \"Token 1 allowance too low\");\n        uint amountRate = rate * amount;\n        require(token2.allowance(owner, address(this)) >= amountRate, \"Token 2 allowance too low\");\n        address receiver_of_token = msg.sender;\n        //transfer TokenSwap\n        //token1, owner1, amount 1 --> owner2. needs to be in same order as function\n        _safeTransferFrom(token1, receiver_of_token, owner, amount);\n        _safeTransferFrom(token2, owner, receiver_of_token, amountRate);\n        emit SwapToken(msg.sender, amount);\n    }\n    \n    function _safeTransferFrom(IERC20 token, address sender, address recipient, uint amount) private {\n        bool sent = token.transferFrom(sender, recipient, amount);\n        require(sent, \"Token transfer failed\");\n    }\n    function setRate(uint8 _rate) onlyOwner public{\n        rate = _rate;\n    }\n    function viewRate() public view returns(uint8){\n        return rate;\n    }\n\n\n\n\n}",
  "sourcePath": "/home/amir/Desktop/contracts/contracts/TokenSwap.sol",
  "compiler": {
    "name": "solc",
    "version": "0.8.2+commit.661d1103.Emscripten.clang"
  },
  "schemaVersion": "3.4.3",
  "updatedAt": "2022-04-30T10:15:24.283Z",
  "devdoc": {
    "kind": "dev",
    "methods": {},
    "version": 1
  },
  "userdoc": {
    "kind": "user",
    "methods": {},
    "version": 1
  }
}